:020000040800F2
:10000000F0050020550100085D0A000829020008DB
:1000100000000000000000000000000000000000E0
:10002000000000000000000000000000450D000876
:100030000000000000000000790C0008850D000899
:100040006701000800000000670100086701000860
:1000500067010008670100086701000867010008E0
:100060000000000067010008670100086701000840
:100070006701000867010008670100080000000030
:100080006701000800000000000000006701000890
:1000900000000000670100082D0E0008670100083D
:1000A0000000000067010008000000006701000870
:1000B00000F002F800F03EF80CA030C80838241810
:1000C0002D18671EA246AB4654465D46AC4201D190
:1000D00000F030F87E460F3EB6460FCC0126334284
:1000E00000D0FB1A3343A246AB4618471415000054
:1000F00034150000103A02D378C878C1FAD85207F4
:1001000001D330C830C101D504680C6070470000CD
:100110000023002400250026103A01D378C1FBD823
:10012000520700D330C100D50B6070471FB51FBD0B
:1001300010B510BD00F02DF81146FFF7F7FF00F0E5
:100140002DFF00F045F803B4FFF7F2FF03BC00F009
:100150004BF800000748804707480047FEE7FEE7E6
:10016000FEE7FEE7FEE7FEE704480549054A064BC1
:1001700070470000290E0008B1000008F0000020C0
:10018000F0050020F0010020F001002070477047CA
:100190007047754600F024F8AE46050069465346A0
:1001A000C008C000854618B020B5FFF7DDFF60BC71
:1001B000B64600260027C0C5C0C5C0C5C0C5C0C55D
:1001C000C0C5C0C5C0C5403D490849008D467047FF
:1001D00010B50446C046C0462046FFF7B4FF10BD28
:1001E000004870470800002001491820ABBEFEE718
:1001F000260002007047000080B5002806D00128C4
:1002000008D10548022100F0D7F880BD024802213C
:1002100000F0E9F880BDC0460004004801480068CD
:100220007047C0466C000020FEE7000081B0134913
:100230000A6802430A60096801400091009801B011
:100240007047C04681B0012040040C490A6802434F
:100250000A60096801400091009801B07047C046EB
:1002600081B00120400405490A6802430A60096818
:1002700001400091009801B07047C0461410024040
:1002800081B0012000070C490A6802430A6009682E
:1002900001400091009801B07047C04681B0012034
:1002A000000205490A6802430A600968014000919A
:1002B000009801B07047C0461C10024081B013483E
:1002C000016801221143016000681040009000980D
:1002D00001B0704781B0012040040C490A68024314
:1002E0000A60096801400091009801B07047C0465B
:1002F00081B00120800305490A6802430A60096849
:1003000001400091009801B07047C04618100240AB
:1003100005480168012008407047C046024801684E
:1003200001220A430260704700200240F0B581B00C
:100330000D460446096800292DD0002709E06A69A6
:100340002046314600F044F87F1C29680846F840F2
:1003500021D00126BE400E40F6D06A6820463146C4
:1003600000F043F86868401E012804D8AA682046B7
:10037000314600F052F82A692046314600F044F830
:1003800068680228E0D1FF2ED9D86A692046314634
:1003900000F014F8D8E76868401E012803D8EA681E
:1003A000204600F02BF8002001B0F0BD00690840A5
:1003B000411A484248417047816270474943494366
:1003C0004A430F234B43016A99431143016270472B
:1003D000090A494349434A430F234B43416A99431E
:1003E0001143416270478161704749434A43032387
:1003F0004B43016899431143016070474A43436886
:100400008B4313434360704749434A4303234B43A1
:10041000C16899431143C160704749434A4303236C
:100420004B438168994311438160704780B500F068
:1004300001F880BD80B57D21C90000F0D9FF401EC4
:1004400003494860002088600520086080BDC046E0
:1004500010E000E05D480168F02008407047C046A9
:100460000720010259480068084070475748016852
:100470000C2008407047C046544801680C200840D2
:100480007047C04680B5002801D0002080BD00F034
:100490001FF803280CD0022804D001280ED100F048
:1004A00007FC80BD00F034F8411E8841C00380BDC8
:1004B00000F020F8002807D0044880BD00F0F8FBC9
:1004C00000F0DCFB00F0E8FB80BDC04600127A00C3
:1004D00042480168032008407047C0462F48016821
:1004E00001220A43026070472C4800688007C00F51
:1004F0007047C046294800688007C00F7047C04653
:100500002648016880220A4378218A4302607047A6
:10051000024800688007C00F7047C04620100240A4
:100520000548016801220A430260704702480068DA
:100530008007C00F7047C046241002403D200004D1
:1005400022490A6882430520C00410180860886A9E
:100550000F22904388627047012000060F490A6805
:1005600002430A607047C046012001041748006832
:10057000084070470F208104144800680840704705
:10058000024801680F2008407047C0462C10024006
:10059000024800688001C00F7047C046001002404A
:1005A0000A480168F0229143016070470720000269
:1005B00006490A6882430A607047C04603480168DA
:1005C00002220A4301218A4302607047041002405C
:1005D00002480168032291430160704730100240D5
:1005E000014908607047C0460000002002480168C9
:1005F000012291430160704720200040026A0A43B3
:10060000026270470121C94301617047016880227D
:100610009143016070470168012291430160704776
:10062000016801220A4302607047416901220A43BE
:100630004261704770B50D46044601681F4EB042D6
:1006400002D01F48844204D1702081436868084367
:1006500000E008461B498C4208DDB4420CD01A4920
:100660008C4209D019498C4206D024E014498C42AE
:1006700002D0D3498C421ED1032109028843E96884
:1006800001432160A968204600F06CF829882046C3
:1006900000F06CF8B44205D00B48844202D00B48FD
:1006A000844203D1297C204600F062F82046FFF7FF
:1006B000BCFF002070BD0146E3E7C046002C0140AE
:1006C00000040040FF2B014000480140004401406D
:1006D00001690120084070470548016804229143E0
:1006E000016070470248016808220A4302607047AF
:1006F00018200040B0B503460120FF2909DC01297C
:1007000014D010291DD11846114600F0E7F9002039
:10071000B0BD01242502A9420ED02403A14210D16C
:100720001846114600F06CFA0020B0BD184611467C
:1007300000F096F90020B0BD1846114600F016FAF8
:100740000020B0BD014908607047C0463420004019
:100750004163704781637047C163704701647047AC
:10076000C1627047C16270474162704781627047E1
:10077000016370470120C00204490A6882430A608D
:1007800048680822904348607047C04604380140DA
:100790000120800202490A6882430A607047C0460D
:1007A00008380140AC48016801220A4302607047E2
:1007B00070B50E46054600F033F80124002801D03C
:1007C000204670BD28681549014070680843F168EB
:1007D000014330690843B16901432960B168284683
:1007E00000F047F87169284600F03CF89A488542C5
:1007F00003D00021002906D1E2E70020FFF742FEE6
:1008000001460029DCD03368002BD9D0B2692846D4
:1008100000F00AF80024204670BDC046F369FFFFCF
:10082000016801200840704710B504460120C0034C
:1008300082420CD1480059080818194600F0D8FD2A
:10084000074901400007400F4018E06010BD5808FC
:100850004018194600F0CCFD80B2E06010BDC046E3
:10086000F0FF000003221202836893430B4383606E
:10087000704703221203436893430B43436070475E
:10088000F0B589B000240894079406940594049464
:1008900003940125A805FFF7C9FC6804FFF7C6FC0F
:1008A000A8040295FFF7C2FC0920C0060190202190
:1008B0000091FFF781FD1A4802263146FFF77CFDC3
:1008C000079404940395174803AF3946FFF72EFDAC
:1008D000079606940594049500980390019D284678
:1008E0003946FFF723FD07960494402003902846DD
:1008F0003946FFF71BFD0796049480200390284695
:100900003946FFF713FD0796069405940298049064
:10091000039603483946FFF709FD09B0F0BDC0460C
:100920000004004800140048B0B594B000251395A9
:100930001295119510950F950E950D950C950B959B
:100940000A950995089507950695059504950395CB
:1009500002950195FFF7A2FC0FA92F2008801295A0
:10096000164811901095164C2046FFF763FE20465E
:10097000FFF74CFEFFF7B6FE0B95FF20F4300A9010
:100980000995089560200790012107AA2046FFF7E6
:10099000B1FEFFF7A1FEFFF755FC042006900220F0
:1009A0000590049503950290102001900920C0063F
:1009B00001A9FFF7BBFC14B0B0BDC046E7030000BF
:1009C00000200040F0B58FB000260E960D960C96D4
:1009D0000B960A960996089607960696059604962B
:1009E00003960296FFF784FCFFF73AFC0120019082
:1009F000079006960596032000900490022703971F
:100A0000042002900920C40602AD20462946FFF7C3
:100A10008DFC019807900696059600980490039720
:100A20000820029020462946FFF780FC0E960D967E
:100A30000C200C900B960A960996E1200002089073
:100A4000054808A9FFF7B4FEFFF7A2FEFFF792FEE4
:100A5000FFF7A8FE0FB0F0BD00380140FEE7000030
:100A6000F0B583B004460126F043226A02402262B8
:100A70000A690240236A0327BB43134308680290B4
:100A80004D681D436368A2697948844205D0ED48EA
:100A9000844202D07748844213D1380283437002E3
:100AA0004E6901968F69CE6987431F4373003B43AC
:100AB0000C20854301984008C00028438D68AD0094
:100AC000054363607320824302980243A261C968B0
:100AD0002046FFF73DFE256203B0F0BDF0B583B0C0
:100AE0000446006A102290432062206A302290431C
:100AF0000A695208520102430F684B681D011543F1
:100B00006368A2695A4EB44205D0CE4EB44202D0B8
:100B1000ED4EB44219D10326B602B34348690290A0
:100B20003E468F69C8690190BF000F48384037467C
:100B30001843019BDB000343C02085430298400813
:100B4000C00128438D68AD01054363607320000236
:100B5000824338021043A061C9682046FFF7FAFDBE
:100B6000256203B0F0BDC046FCF7FFFFF0B585B0CD
:100B700004462148FF30226A02402262032003908B
:100B80000002226A8243086940084302134308684E
:100B900004904A6815021D436368E269344FBC4201
:100BA00005D0A84FBC4202D0C74FBC4217D1039812
:100BB0000703BB434E6902968E69CF6901973701DF
:100BC0000E4E3E401E43019B5B0133438002854332
:100BD00002984008C00228438D68AD020543636057
:100BE0007320824304980243E261C9682046FFF7FC
:100BF000B3FD256205B0F0BD00FEFFFFF0DFFFFF93
:100C0000F0B583B0044601263003226A8243226293
:100C1000256A636805C902928A680192E269144FE5
:100C20000839BC4205D0874FBC4202D0A64FBC4217
:100C300005D1B603B3438E69B6011E4300E01E46DC
:100C4000666073231B029A4300021043E061C96887
:100C50002046FFF783FD03200003854301984008E9
:100C600040032843029909030143216203B0F0BD08
:100C7000002C0140004401407047000010B50446BC
:100C8000FFF7E8FB0006000F0249085CC44020465D
:100C900010BDC046E615000810B50446FFF7E0FB9E
:100CA000000A0249085CC440204610BDF615000841
:100CB00080B5FFF7E1FB082802D100F003F880BD02
:100CC000104880BDB0B501200504FFF74DFC0E4C67
:100CD000A84203D02146002804D002E00949002898
:100CE00000D00C46FFF74CFC411C204600F080FB76
:100CF0000446FFF73FFC8002000F801C444320465F
:100D0000B0BDC04600127A0000093D0010B582B0A7
:100D100001AC002020700920C0068021FFF746FBAF
:100D20002070C0B2411E4842484102B010BD0000D0
:100D300080B503480121FFF739FBC0B280BDC04632
:100D400000140048704780B5002807D001280AD158
:100D50000920C0062021FFF746FB80BD0920C00600
:100D60002021FFF729FB80BD80B505490868401C9C
:100D7000086012490968002900D0884780BDC04634
:100D80006C00002080B5FFF7EFFF80BD10B5FF219C
:100D90000A0608494B681340074C1B194B608B68C7
:100DA00013408B60054A10600868072202430A60FE
:100DB00010BDC04610E000E07FBB000068000020CE
:100DC00010B5FFF7ABFAFFF7A3FA0128FBD1FFF745
:100DD00085FBFFF789FB0128FBD1FFF791FBFFF7AC
:100DE0009FFBFFF7A3FB0128FBD1FFF7A7FBFFF752
:100DF000B3FBFFF7CDFB0128FBD1FFF7D1FBFFF7DA
:100E0000D5FBFFF7DBFBFFF731FB0828FBD1054CD7
:100E10002046FFF70BFB2046FFF7E2FBFFF7D8FB6E
:100E200010BDC046006CDC027047000010B5054CD8
:100E30002046FFF74DFC012802D12046FFF7E2FBD8
:100E400010BDC04600480140C348012101707047F1
:100E5000EE48012101707047FF20000603490A682F
:100E600082430320800710180860704720ED00E0DF
:100E700010B504461920C101208948433C2100F0E7
:100E8000B7FA01466060024800F0B2FA208010BD57
:100E900040420F0010B50146EC4C2046FFF760FCC5
:100EA0002046FFF7AFFB00212046FFF75DFC204600
:100EB000FFF7B6FB2046FFF70BFC0028FAD02046D0
:100EC000FFF7A9FB10BDC04600440140B0B5044681
:100ED000174D00212846FFF747FC6008FFF732FC5A
:100EE00028462146FFF73CFCB0BDC046B0B50546DC
:100EF0000F4C2046FFF78FFB6808FFF723FC2046C6
:100F00002946FFF72DFC00212046FFF72DFC01218B
:100F10002046FFF773FB2046FFF782FBB0BDC046BB
:100F200080B50348FFF777FBFFF760FB80BDC04645
:100F30000020004080B578210181FFF799FF5648D5
:100F40000178FE220A40027080BDC04610B5084CF0
:100F500008492046FFF708FC01212046FFF74EFB19
:100F600010212046FFF74AFB2046FFF759FB10BD32
:100F700000040040FF7F000080B5FFF7D9FEA449C0
:100F800008700878012801D1022004E008780028C0
:100F900000D080BD00209C49087080BDFFF78EF90D
:100FA000FFF76EF9FFF758FFFFF70AFFFFF768FC3E
:100FB000FFF7BAFCFFF706FD00F04AF9FFF7DCFF88
:100FC000044C2046FFF7B6FF034D2846214600F0AB
:100FD00005F8FAE78400002074000020F0B581B025
:100FE0000C4600F0BDF8002803D02A490A781018F2
:100FF0000870284E307803283DD8C04678440079E0
:1010000040008744010C1C3A23480178FE220A4024
:101010000270FFF785FF0020FFF7EEF82DE01E4F6E
:101020003878C00729D101252846FFF7E5F8387838
:101030000221014339702846FFF785FE14E0164F60
:101040003878800719D500252846FFF7D5F800F035
:1010500049F93878FD21014039702846FFF773FEC1
:1010600001252846FFF7C8F8204600F017F9387820
:101070002843387001E00020307000F00FF801289C
:1010800005D100203070FFF7B7F800F02BF901B060
:10109000F0BDC0467000002092000020B0B52D4D7C
:1010A0002878002805D1FFF731FE012801D1012061
:1010B00028702878012804D1322000F01FF902207E
:1010C00028702878022810D12348017801290CD1F2
:1010D00000240470FFF71AFE002838D0642000F0C6
:1010E0000DF9032028701D4804702878032813D1B7
:1010F0001948017801290FD100240470FFF706FE7A
:1011000000281CD0642000F0F9F814480178042964
:1011100018D80178491C01702878002404280CD1C3
:101120000D480178012908D100240470FFF7EEFD75
:1011300000280BD0642000F0E1F82046B0BD2C70F0
:101140000120B0BD042028700120B0BD00242C7007
:101150002046B0BD910000208000002090000020BB
:1011600070B5294D287800281CD0287801280DD189
:1011700026480178012909D100240470FFF7D8FD21
:10118000234E307001281BD101201FE02878002455
:10119000022805D1FFF7CCFD1D490870002808D0B2
:1011A000204670BDFFF7C4FD1949087000240128CE
:1011B000F6D1012028700A2000F00EF9204670BDFB
:1011C000FFF7B6FD3070002804D1FF2011490A78DE
:1011D000101808700F480178132907D801780029E2
:1011E00004D00A2000F0F8F8002070BD017814291E
:1011F00001D1022402E00178002900D12C700A21DB
:101200000170012070BDC0468200002081000020D6
:10121000930000200400002010B586B0002405943F
:101220000494039402940194FFF754F801A92F2029
:1012300008800494FF2003900294044C2046FFF79A
:10124000F9F92046FFF7E2F906B010BD004401406D
:1012500010B5FFF77BFEFFF7DFFF0C48FFF796FDA9
:101260000B4800F079F80A200A4A00242146234658
:1012700000F050F85D4908603220074A21462346B5
:1012800000F048F82249086010BDC04695130008D8
:101290001D020008F5120008ED120008B0B582B07A
:1012A00004460F4801900198FFF720FE7D200501BC
:1012B0002846FFF7EFFD2088019981420CD901985B
:1012C0000A3801900198FFF701FE2846FFF7E2FD7A
:1012D000208801998142F2D8FFF7F8FD02B0B0BD35
:1012E0006A18000080B5FFF71BFE80BD80B5FFF7D0
:1012F000ABFD80BD80B5FFF7ABFD80BD10B50146ED
:10130000034C206800F03EF8206800F029F810BD7A
:1013100098000020F0B581B0054600202D4E012434
:10132000F768002F07D0471C641C10360328384686
:10133000F6D900240DE0F26071727560002B06D0C2
:101340000F480068804740193060012000E000200D
:101350003072204601B0F0BD094908607047C046B0
:1013600010B500280BD000011A494418103C04485D
:10137000006880470121217261680818206010BD53
:1013800094000020002804D00001124A80180C3874
:1013900001607047F0B581B00446002601250D4F6D
:1013A00008E000210172C168284688476D1C10368C
:1013B000502E0DD0B819017A0129F7D1B959A1429F
:1013C000F4D8417A0029ECD041680919B951EAE70B
:1013D00001B0F0BDA000002010B50146034C20680C
:1013E000FFF7D0FF2068FFF7BBFF10BD9C00002077
:1013F00043088B421AD3002203098B4279D3030A94
:101400008B425ED3030B8B4242D3030C8B4227D318
:101410000902FF2212BA030C8B4202D312120902F4
:1014200003D0030B8B4233D31AE0D3E0411A80413F
:10143000401C704703460B4371D443088B42F5D3DD
:10144000002203098B4254D3030A8B4239D3030B86
:101450008B421DD3030C8B4202D394466EE0090AE3
:10146000C30B8B4201D3CB03C01A5241830B8B4277
:1014700001D38B03C01A5241430B8B4201D34B0360
:10148000C01A5241030B8B4201D30B03C01A5241C5
:10149000C30A8B4201D3CB02C01A5241830A8B424A
:1014A00001D38B02C01A5241430A8B4201D34B0233
:1014B000C01A5241030A8B4201D30B02C01A524197
:1014C000CDD2C3098B4201D3CB01C01A524183094B
:1014D0008B4201D38B01C01A524143098B4201D385
:1014E0004B01C01A524103098B4201D30B01C01AB0
:1014F0005241C3088B4201D3CB00C01A524183082A
:101500008B4201D38B00C01A524143088B4201D356
:101510004B00C01A5241411A524110007047CA0F85
:1015200000D04942031000D34042534000229C4661
:1015300003098B422DD3030A8B4212D38901FC226B
:1015400012BA030A8B420CD3890192118B4208D341
:10155000890192118B4204D3890137D0921100E0A6
:101560008909C3098B4201D3CB01C01A52418309B7
:101570008B4201D38B01C01A524143098B4201D3E4
:101580004B01C01A524103098B4201D30B01C01A0F
:101590005241C3088B4201D3CB00C01A5241830889
:1015A0008B4201D38B00C01A5241D9D243088B42DF
:1015B00001D34B00C01A5241411A00D20146524198
:1015C000104663465B1000D34042704763465B1091
:1015D00000D3404201B50021004201D0C943084672
:1015E000C046C04602BD000000000000000001022D
:1015F00003040607080900000000010203040000BC
:10160000201600080000002008000000F400000878
:101610002816000808000020E80500001001000856
:0816200000127A000A0000002C
:04000005080000B13E
:00000001FF
