:020000040800F2
:10000000200600209D010008950D00082905000824
:1000100000000000000000000000000000000000E0
:100020000000000000000000000000006D1000084B
:100030000000000000000000B10F0008AD10000833
:10004000AF01000800000000AF010008AF01000888
:10005000AF010008AF010008AF010008AF010008C0
:1000600000000000AF010008AF010008AF01000868
:10007000AF010008AF010008AF0100080000000058
:10008000AF0100080000000000000000AF01000800
:1000900000000000AF01000855110008AF01000882
:1000A00000000000AF01000800000000AF010008E0
:1000B00000F002F800F046F80CA030C80838241808
:1000C0002D18671EA246AB4654465D46AC4201D190
:1000D00000F038F87E460F3EB6460FCC012633427C
:1000E00000D0FB1A3343A246AB461847D81800008D
:1000F000F8180000103A02D378C878C1FAD852072D
:1001000001D330C830C101D504680C6070470000CD
:100110000023002400250026103A01D378C1FBD823
:10012000520700D330C100D50B60704710B5752958
:1001300002D100F099F810BD002010BD1FB51FBD01
:1001400010B510BD00F093F91146FFF7F7FF01F06D
:10015000CBF800F0ABF903B4FFF7F2FF03BC00F0FB
:10016000B1F9000070B505460C46164602E00FCC0A
:100170000FC5103E102EFAD2082E02D303CC03C5B1
:10018000083E042E07D301CC01C5361F03E02178B9
:100190002970641C6D1C761EF9D270BD074880471B
:1001A00007480047FEE7FEE7FEE7FEE7FEE7FEE75B
:1001B00004480549054A064B7047000051110008E4
:1001C000B1000008200100202006002020020020AD
:1001D000200200200FB41CB5074B06AA7B446946D9
:1001E0000090059800F017F90020694600F026F904
:1001F0001CBC08BC04B018475D020000F8B50E46F0
:100200000446002020622046E1688847002829D063
:10021000252802D06268A16820E0E1682046002716
:10022000884705001ED028464138192802D80127E2
:10023000FF0220353246204627602946FFF776FF29
:10024000002808D0012804D0F61DF608F60008366C
:10025000D9E7361DD7E762682846A1689047206A2B
:10026000401CCFE7206AF8BDF7B500257529106856
:10027000009914A611D0C046C046002802DA4042B8
:1002800011A608E0009909688A0701D50FA602E0C7
:10029000490704D50EA6012501E0C046C046009FCF
:1002A0000024243704E000F0CEF830313955641CC6
:1002B0000028F8D12B4632462146009800F04EF82F
:1002C000FEBD0000000000002D0000002B0000001B
:1002D00020000000F8B5042A2CD3830712D00B7835
:1002E000491C0370401C521E83070BD00B78491C1D
:1002F0000370401C521E830704D00B78491C037006
:10030000401C521E8B079B0F05D0C91ADF0020230B
:10031000DE1B08C90AE0FFF725FFF8BD1D4608C926
:10032000FD401C46B4402C4310C0121F042AF5D2D5
:10033000F308C91A521EF0D40B78491C0370401CF4
:10034000521EEAD40B78491C0370401C012AE4D4E5
:1003500009780170F8BD704770477047FFB50446D3
:100360000D4681B0243000902168880604D5102203
:10037000E0699143216000E00120A84201DD471BB4
:1003800000E000270498A1697A191018081AA061E2
:100390002078C00602D42046C046C046002608E0A9
:1003A00003986268A168805D9047206A401C761CB3
:1003B000206204988642F3DB2078C0060AD52046E6
:1003C000C046C04606E06268A16830209047206AB7
:1003D000401C206238467F1E0028F4DC07E00098AD
:1003E0006268A168405D9047206A401C20622846F0
:1003F0006D1E0028F3DC2046C046C046207800066B
:1004000002D5022005B0F0BD0120FBE701694A1CBE
:1004100002610878704700B58FB002910021059104
:100420000549019379440391114604906846FFF70A
:10043000E5FE0FB000BD0000E5FFFFFF0A68107089
:10044000521C0A60704701468008081A02091018F9
:10045000020A1018020C1018C0088200121852006C
:10046000891A01E0401C0A390A29FBD270477546F7
:1004700000F024F8AE46050069465346C008C000A7
:10048000854618B020B5FFF793FE60BCB64600263F
:100490000027C0C5C0C5C0C5C0C5C0C5C0C5C0C592
:1004A000C0C5403D490849008D46704710B5044617
:1004B000C046C0462046FFF74EFE10BD00487047BC
:1004C0000800002001491820ABBEFEE7260002000C
:1004D0007047B0B50578002D0CD0044600F02EFB17
:1004E0000128FBD1E8B200F061FB601C6578002DAB
:1004F0000446F3D1B0BD000080B5002806D0012825
:1005000008D10548022100F0D5F880BD024802213B
:1005100000F0E7F880BDC0460004004801480068CC
:100520007047C046A0000020FEE7000081B01349DC
:100530000A6802430A60096801400091009801B00E
:100540007047C04681B0012040040C490A6802434C
:100550000A60096801400091009801B07047C046E8
:1005600081B00120400405490A6802430A60096815
:1005700001400091009801B07047C046141002403D
:1005800081B0012000070C490A6802430A6009682B
:1005900001400091009801B07047C04681B0012031
:1005A000000205490A6802430A6009680140009197
:1005B000009801B07047C0461C10024081B012483C
:1005C000016801221143016000681040009000980A
:1005D00001B0704781B00C490A6802430A6009689B
:1005E00001400091009801B07047C04681B00120E1
:1005F000800305490A6802430A60096801400091C6
:10060000009801B07047C0461810024005480168C4
:10061000012008407047C0460248016801220A4391
:100620000260704700200240F0B581B00D460446DC
:10063000096800292DD0002709E06A692046314663
:1006400000F044F87F1C29680846F84021D00126B4
:10065000BE400E40F6D06A682046314600F043F8AE
:100660006868401E012804D8AA682046314600F078
:1006700052F82A692046314600F044F8686802289A
:10068000E0D1FF2ED9D86A692046314600F014F82F
:10069000D8E76868401E012803D8EA68204600F0C1
:1006A0002BF8002001B0F0BD00690840411A484213
:1006B0004841704781627047494349434A430F2389
:1006C0004B43016A9943114301627047090A494348
:1006D00049434A430F234B43416A994311434162C3
:1006E00070478161704749434A4303234B43016884
:1006F00099431143016070474A4343688B43134356
:100700004360704749434A4303234B43C1689943BD
:100710001143C160704749434A4303234B438168F7
:10072000994311438160704780B500F001F880BDA6
:1007300080B57D21C90001F031F8401E03494860B1
:10074000002088600520086080BDC04610E000E001
:100750005D480168F02008407047C046072001024C
:100760005948006808407047574801680C20084005
:100770007047C046544801680C2008407047C04686
:1007800080B5002801D0002080BD00F01FF80328AC
:100790000CD0022804D001280ED100F025FC80BD29
:1007A00000F034F8411E8841C00380BD00F020F8FD
:1007B000002807D0044880BD00F016FC00F0FAFBCA
:1007C00000F006FC80BDC04600127A004248016875
:1007D000032008407047C0462F48016801220A43A1
:1007E000026070472C4800688007C00F7047C04601
:1007F000294800688007C00F7047C0462648016836
:1008000080220A4378218A430260704702480068C8
:100810008007C00F7047C04620100240054801689D
:1008200001220A4302607047024800688007C00F37
:100830007047C046241002403D20000422490A6847
:1008400082430520C00410180860886A0F22904374
:1008500088627047012000060F490A6802430A6057
:100860007047C046012001041748006808407047DF
:100870000F2081041448006808407047024801684E
:100880000F2008407047C0462C1002400248006804
:100890008001C00F7047C046001002400A4801683E
:1008A000F0229143016070470720000206490A6860
:1008B00082430A607047C0460348016802220A4327
:1008C00001218A4302607047041002400248016817
:1008D00003229143016070473010024001490860D3
:1008E0007047C04600000020024801680122914381
:1008F0000160704720200040026A0A43026270478C
:100900000121C94301617047016880229143016060
:10091000704700003348016801229143016070472D
:1009200001680122914301607047016801220A4376
:10093000026070470248016801220A430260704762
:100940000C480140416901220A434261704700009E
:1009500070B50D46044601681F4EB04202D01F48D4
:10096000844204D1702081436868084300E008464F
:100970001B498C4208DDB4420CD01A498C4209D084
:1009800019498C4206D024E014498C4202D0DA493D
:100990008C421ED1032109028843E968014321608A
:1009A000A968204600F06CF82988204600F06CF811
:1009B000B44205D00B48844202D00B48844203D194
:1009C000297C204600F062F82046FFF7BBFF00209C
:1009D00070BD0146E3E7C046002C01400004004022
:1009E000FF2B014000480140004401400169012003
:1009F0000840704705480168042291430160704730
:100A00000248016808220A4302607047182000402B
:100A1000B0B503460120FF2909DC012914D01029B3
:100A20001DD11846114600F0F5F90020B0BD012493
:100A30002502A9420ED02403A14210D11846114626
:100A400000F07AFA0020B0BD1846114600F0A4F973
:100A50000020B0BD1846114600F024FA0020B0BDB9
:100A6000014908607047C046342000404163704728
:100A700081637047C163704701647047C16270470A
:100A8000C16270474162704781627047016370477D
:100A90000120C00204490A6882430A6048680822AB
:100AA000904348607047C0460438014001208002EE
:100AB00002490A6882430A607047C046083801400C
:100AC000B348016801220A430260704770B50E46C0
:100AD000054600F03BF80124002801D0204670BDF7
:100AE00028681549014070680843F168014330697E
:100AF0000843B16901432960B168284600F04FF806
:100B00007169284600F044F8A148854203D00021CD
:100B1000002906D1E2E70020FFF732FE0146002956
:100B2000DCD03368002BD9D0B269284600F012F827
:100B30000024204670BDC046F369FFFF02480068EC
:100B40004006C00F7047C0461C38014001680120B4
:100B50000840704710B504460120C00382420CD102
:100B6000480059080818194600F018FE07490140C6
:100B70000007400F4018E06010BD580840181946A3
:100B800000F00CFE80B2E06010BDC046F0FF000037
:100B900003221202836893430B438360704703224E
:100BA0001203436893430B43436070470149088035
:100BB0007047C04628380140F0B589B00024089439
:100BC000079406940594049403940125A805FFF75F
:100BD000ADFC6804FFF7AAFCA8040295FFF7A6FC89
:100BE0000920C006019020210091FFF763FD1A48FB
:100BF00002263146FFF75EFD0794049403951748DB
:100C000003AF3946FFF710FD079606940594049547
:100C100000980390019D28463946FFF705FD079689
:100C200004944020039028463946FFF7FDFC0796C0
:100C300004948020039028463946FFF7F5FC079678
:100C40000694059402980490039603483946FFF7EA
:100C5000EBFC09B0F0BDC046000400480014004899
:100C6000B0B594B0002513951295119510950F9578
:100C70000E950D950C950B950A9509950895079578
:100C8000069505950495039502950195FFF786FC59
:100C90000FA92F2008801295164811901095164C18
:100CA0002046FFF755FE2046FFF72EFEFFF7A8FE71
:100CB0000B95FF20F4300A90099508956020079065
:100CC000012107AA2046FFF7A3FEFFF793FEFFF7D7
:100CD00039FC0420069002200590049503950290AB
:100CE000102001900920C00601A9FFF79DFC14B057
:100CF000B0BDC046E703000000200040F0B58FB053
:100D000000260E960D960C960B960A960996089656
:100D1000079606960596049603960296FFF766FCDC
:100D2000FFF71EFC01200190079006960596032010
:100D30000090049002270397042002900920C40623
:100D400002AD20462946FFF76FFC019807900696F2
:100D500005960098049003970820029020462946A3
:100D6000FFF762FC0E960D960C200C900B960A96DF
:100D70000996E12000020890054808A9FFF7A6FEA1
:100D8000FFF794FEFFF784FEFFF79AFE0FB0F0BD69
:100D900000380140FEE70000F0B583B004460126AC
:100DA000F043226A024022620A690240236A032752
:100DB000BB431343086802904D681D436368A269F2
:100DC0007948844205D0EA48844202D07748844278
:100DD00013D13802834370024E6901968F69CE6940
:100DE00087431F4373003B430C2085430198400811
:100DF000C00028438D68AD000543636073208243C3
:100E000002980243A261C9682046FFF72FFE2562BF
:100E100003B0F0BDF0B583B00446006A10229043E1
:100E20002062206A302290430A695208520102432C
:100E30000F684B681D0115436368A2695A4EB4429E
:100E400005D0CB4EB44202D0584EB44219D103263D
:100E5000B602B343486902903E468F69C869019063
:100E6000BF000F48384037461843019BDB0003435F
:100E7000C020854302984008C00128438D68AD0119
:100E80000543636073200002824338021043A0616F
:100E9000C9682046FFF7ECFD256203B0F0BDC046EF
:100EA000FCF7FFFFF0B585B004462148FF30226A09
:100EB00002402262032003900002226A82430869F2
:100EC000400843021343086804904A6815021D4312
:100ED0006368E269344FBC4205D0A54FBC4202D0E2
:100EE000324FBC4217D103980703BB434E690296A9
:100EF0008E69CF69019737010E4E3E401E43019B1C
:100F00005B0133438002854302984008C0022843B6
:100F10008D68AD02054363607320824304980243E9
:100F2000E261C9682046FFF7A5FD256205B0F0BD66
:100F300000FEFFFFF0DFFFFFF0B583B0044601269F
:100F40003003226A82432262256A636805C90292DD
:100F50008A680192E269144F0839BC4205D0844F77
:100F6000BC4202D0114FBC4205D1B603B3438E69D7
:100F7000B6011E4300E01E46666073231B029A43BF
:100F800000021043E061C9682046FFF775FD0320A9
:100F90000003854301984008400328430299090350
:100FA0000143216203B0F0BD002C01400044014028
:100FB0007047000010B50446FFF7CAFB0006000F9B
:100FC0000249085CC440204610BDC0469219000882
:100FD00010B50446FFF7C2FB000A0249085CC44092
:100FE000204610BDA219000880B5FFF7C3FB0828F2
:100FF00002D100F003F880BD104880BDB0B50120DB
:101000000504FFF72FFC0E4CA84203D02146002810
:1010100004D002E00949002800D00C46FFF72EFC5E
:10102000411C204600F0BAFB0446FFF721FC800279
:10103000000F801C44432046B0BDC04600127A0019
:1010400000093D0080B50920C0068021FFF72CFB78
:101050004142484180BD000080B503480121FFF7AF
:1010600023FBC0B280BDC04600140048704780B565
:10107000002807D001280AD10920C0062021FFF747
:1010800030FB80BD0920C0062021FFF713FB80BD87
:1010900080B505490868401C0860124909680029A4
:1010A00000D0884780BDC046A000002080B5FFF773
:1010B000EFFF80BD10B5FF210A0608494B681340B9
:1010C000074C1B194B608B6813408B60054A1060FE
:1010D0000868072202430A6010BDC04610E000E025
:1010E0007FBB00009C00002010B5FFF795FAFFF7CA
:1010F0008DFA0128FBD1FFF76FFBFFF773FB012887
:10110000FBD1FFF77BFBFFF789FBFFF78DFB012886
:10111000FBD1FFF791FBFFF79DFBFFF7B7FB012822
:10112000FBD1FFF7BBFBFFF7BFFBFFF7C5FBFFF7EB
:101130001BFB0828FBD1054C2046FFF7F5FA20469B
:10114000FFF7CCFBFFF7C2FB10BDC046006CDC0212
:101150007047000010B5C54C2046FFF747FC01283A
:1011600004D12046FFF7CCFB00F004F810BDC046C8
:101170000048014010B5074C01202070FFF7CAFB62
:101180002278054C05A12046FFF724F82046FFF7FA
:10119000A0F910BDB500002068000020656E645FF6
:1011A000626F756E63653D25750D0A00012080052F
:1011B000014908607047C04600E100E0FF200006DA
:1011C00003490A68824303208007101808607047AB
:1011D00020ED00E0FF20000403490A68824301205B
:1011E000800510180860704714E400E010B504464C
:1011F0001920C101208948433C2100F0CFFA014663
:101200006060024800F0CAFA208010BD40420F0022
:10121000002800D0FEE77047B0B50446174D002106
:101220002846FFF72FFC6008FFF71AFC28462146E6
:10123000FFF724FCB0BDC046B0B505460F4C2046B4
:10124000FFF76EFB6808FFF70BFC20462946FFF707
:1012500015FC00212046FFF715FC01212046FFF771
:101260004BFB2046FFF761FBB0BDC04680B503488D
:10127000FFF756FBFFF738FB80BDC046002000405B
:1012800080B578210181FFF7B1FF6E480178FE2219
:101290000A40027080BDC04610B5084C084920467F
:1012A000FFF7F0FB01212046FFF726FB1021204627
:1012B000FFF722FB2046FFF738FB10BD000400407B
:1012C000FF7F000080B5FFF7C7FEC24908700878AD
:1012D000012801D1022004E00878002800D080BD58
:1012E0000020BA49087080BDFFF768F9FFF748F998
:1012F000FFF764FFFFF7F8FEFFF75EFCFFF7B0FCB7
:10130000FFF7FCFC1248FFF7D5FE124800F01EFA6A
:1013100000F0AEF9FFF7D6FF0F4C2046FFF7B0FF05
:10132000F7480021C1710A2181710D214171742199
:1013300001717222C270612282704170732101704A
:10134000FFF7C7F8054D2846214600F009F8FAE7EF
:10135000591700081D050008B8000020A80000204B
:10136000F0B581B00C4600F0DDF800280CD02E4915
:101370000A78101808700A782C4D2DA12846FEF71F
:1013800029FF2846FFF7A5F8274E307803283CD8D8
:101390007844007940008744010C1C3A29480178C0
:1013A000FE220A400270FFF761FF0020FFF7A4F859
:1013B0002DE0244F3878C00729D101252846FFF7B2
:1013C0009BF838780221014339702846FFF74FFE19
:1013D00014E01C4F3878800719D500252846FFF700
:1013E0008BF800F07DF93878FD21014039702846EE
:1013F000FFF73DFE01252846FFF77EF8204600F066
:101400004DF938782843387001E00020307000F042
:101410002FF8012805D100203070FFF76DF800F09B
:101420005FF901B0F0BDC046A400002068000020B4
:1014300064726976655F7374617475733D25750DAB
:101440000A000000C600002010B54100874C20466D
:10145000FFF714FB00212046FFF714FB2046FFF79F
:101460004FFA2046FFF761FA10BDC0460048014020
:10147000B0B5294D2878002805D1FFF7E3FD0128F4
:1014800001D1012028702878012804D13220FFF7EB
:10149000DBFF02202870214C2078297802290DD109
:1014A00001280BD1FFF7CEFD00282BD06420FFF7D9
:1014B000CBFF032028701A4800210170207829787A
:1014C00003290FD101280DD1FFF7BCFD00281DD045
:1014D0006420FFF7B9FF12480178042918D8017871
:1014E000491C0170207829780024042908D101289A
:1014F00006D1FFF7A7FD002804D06420FFF7A4FF62
:101500002046B0BD00242C702046B0BD002000E075
:10151000042028700120B0BDC5000020B4000020C8
:10152000C400002070B5294D2878002810D0284824
:1015300001782A78012A13D1012911D100240470DD
:10154000FFF78AFD234E307001281CD1012020E0D6
:10155000FFF782FD1F490870002401280AD10BE023
:1015600028780024022805D1FFF776FD1949087074
:10157000002801D0204670BD012028700520FFF70B
:1015800063FF204670BDFFF767FD3070002804D16F
:10159000FF2011490A78101808700F4801781329A4
:1015A00007D80178002904D00520FFF74DFF00205F
:1015B00070BD0178142901D1022402E001780029CC
:1015C00000D12C700A210170012070BDB6000020EE
:1015D000B5000020C70000200400002010B586B030
:1015E000002405940494039402940194012040047F
:1015F000FEF7F0FF01A92F2008800494FF2003903C
:101600000294044C2046FFF7A3F92046FFF77CF92B
:1016100006B010BD0044014010B586B0002405940A
:10162000049403940294019401208004FEF7D2FFF5
:1016300001A90C740B48088004940B480390029491
:101640000A4C2046FFF784F92046FFF75DF9204653
:10165000FFF756F9FFF76EF9FFF7BCFDFFF7A6FDA0
:1016600006B010BDBF5D0000FFFF00000048014054
:1016700080B5FFF711FEFFF7B1FFFFF7CDFF04487C
:10168000044A01210B4600F03FF80349086080BD81
:1016900088130000E91600081C01002010B582B074
:1016A00004460E4801900198FFF7C6FD0220FFF79F
:1016B000AFFD2088019981420CD901980A38019028
:1016C0000198FFF7A9FD0220FFF7A2FD20880199EC
:1016D0008142F2D8FFF7A0FD02B010BD6A180000E9
:1016E00080B5FFF7C3FD80BD10B5054C0549182234
:1016F0002046FEF7EFFD2046FEF7EBFE10BDC0468C
:1017000068000020AC190008F0B581B00546002043
:10171000214E0124F768002F07D0471C641C1036A7
:1017200003283846F6D900240DE0F2607172756026
:10173000002B06D007480068804740193060012020
:1017400000E000203072204601B0F0BD0149086081
:101750007047C046C8000020F0B581B0044600269E
:1017600001250D4F08E000210172C1682846884715
:101770006D1C1036502E0DD0B819017A0129F7D101
:10178000B959A142F4D8417A0029ECD0416809192D
:10179000B951EAE701B0F0BDCC00002043088B420C
:1017A0001AD3002203098B4279D3030A8B425ED3FA
:1017B000030B8B4242D3030C8B4227D30902FF2237
:1017C00012BA030C8B4202D31212090203D0030B8C
:1017D0008B4233D31AE0D3E0411A8041401C70475A
:1017E00003460B4371D443088B42F5D3002203090F
:1017F0008B4254D3030A8B4239D3030B8B421DD344
:10180000030C8B4202D394466EE0090AC30B8B4251
:1018100001D3CB03C01A5241830B8B4201D38B03FC
:10182000C01A5241430B8B4201D34B03C01A5241A1
:10183000030B8B4201D30B03C01A5241C30A8B42E4
:1018400001D3CB02C01A5241830A8B4201D38B02CF
:10185000C01A5241430A8B4201D34B02C01A524173
:10186000030A8B4201D30B02C01A5241CDD2C309E5
:101870008B4201D3CB01C01A524183098B4201D361
:101880008B01C01A524143098B4201D34B01C01A4C
:10189000524103098B4201D30B01C01A5241C308C4
:1018A0008B4201D3CB00C01A524183088B4201D333
:1018B0008B00C01A524143088B4201D34B00C01A1F
:1018C0005241411A524110007047CA0F00D049429C
:1018D000031000D34042534000229C4603098B4230
:1018E0002DD3030A8B4212D38901FC2212BA030AB8
:1018F0008B420CD3890192118B4208D3890192113A
:101900008B4204D3890137D0921100E08909C309C1
:101910008B4201D3CB01C01A524183098B4201D3C0
:101920008B01C01A524143098B4201D34B01C01AAB
:10193000524103098B4201D30B01C01A5241C30823
:101940008B4201D3CB00C01A524183088B4201D392
:101950008B00C01A5241D9D243088B4201D34B00AD
:10196000C01A5241411A00D2014652411046634604
:101970005B1000D34042704763465B1000D3404287
:1019800001B50021004201D0C9430846C046C04607
:1019900002BD000000000000000001020304060771
:1019A0000809000000000102030400007654696D7C
:1019B0006572554152546D736743616C6C6261632B
:1019C0006B0D0A00E8190008000000200800000064
:1019D000F4000008F01900080800002018060000B4
:1019E000100100080000000000127A000A00000048
:04000005080000B13E
:00000001FF
