:020000040800F2
:10000000C005002065010008190F000875040008EC
:1000100000000000000000000000000000000000E0
:10002000000000000000000000000000D3110008E4
:10003000000000000000000035110008F711000862
:100040007701000800000000770100087701000830
:1000500077010008770100087701000877010008A0
:100060000000000077010008770100087701000810
:100070007701000877010008770100080000000000
:100080007701000800000000000000007701000870
:1000900000000000770100089512000877010008B1
:1000A0000000000077010008000000007701000850
:1000B00000F002F800F046F80CA030C80838241808
:1000C0002D18671EA246AB4654465D46AC4201D190
:1000D00000F038F87E460F3EB6460FCC012633427C
:1000E00000D0FB1A3343A246AB46184774180000F1
:1000F00094180000103A02D378C878C1FAD8520791
:1001000001D330C830C101D504680C6070470000CD
:100110000023002400250026103A01D378C1FBD823
:10012000520700D330C100D50B60704710B5752958
:1001300002D100F07DF810BD002010BD1FB51FBD1D
:1001400010B510BD00F037F91146FFF7F7FF01F0C9
:1001500071F900F04FF903B4FFF7F2FF03BC00F0B0
:1001600055F900000748804707480047FEE7FEE7CB
:10017000FEE7FEE7FEE7FEE704480549054A064BB1
:100180007047000091120008B1000008C000002074
:10019000C0050020C0010020C00100200FB41CB524
:1001A000074B06AA7B4469460090059800F0D7F8F3
:1001B0000020694600F0E6F81CBC08BC04B01847F3
:1001C000DD010000F8B50E460446002020622046FE
:1001D000E1688847002829D0252802D06268A168F4
:1001E00020E0E16820460027884705001ED0284609
:1001F0004138192802D80127FF022035324620460F
:1002000027602946FFF792FF002808D0012804D074
:10021000F61DF608F6000836D9E7361DD7E76268FE
:100220002846A1689047206A401CCFE7206AF8BDA5
:10023000F7B5002575291068009914A611D0C0469D
:10024000C046002802DA404211A608E00099096879
:100250008A0701D50FA602E0490704D50EA601259D
:1002600001E0C046C046009F0024243704E000F0AF
:100270008EF830313955641C0028F8D12B463246AF
:100280002146009800F00DF8FEBD000000000000BF
:100290002D0000002B000000200000007047704778
:1002A0007047FFB504460D4681B0243000902168A8
:1002B000880604D51022E0699143216000E0012006
:1002C000A84201DD471B00E000270498A1697A19C4
:1002D0001018081AA0612078C00602D42046C04633
:1002E000C046002608E003986268A168805D9047D8
:1002F000206A401C761C206204988642F3DB20783A
:10030000C0060AD52046C046C04606E06268A1681D
:1003100030209047206A401C206238467F1E00280B
:10032000F4DC07E000986268A168405D9047206AAD
:10033000401C206228466D1E0028F3DC2046C04683
:10034000C0462078000602D5022005B0F0BD01208D
:10035000FBE7000001694A1C02610878704700B59C
:100360008FB00291002105910549019379440391D1
:10037000114604906846FFF725FF0FB000BD00004E
:10038000E5FFFFFF0A681070521C0A6070470146C3
:100390008008081A02091018020A1018020C101816
:1003A000C008820012185200891A01E0401C0A3964
:1003B0000A29FBD27047754600F024F8AE460500C6
:1003C00069465346C008C000854618B020B5FFF7FF
:1003D000D3FE60BCB64600260027C0C5C0C5C0C558
:1003E000C0C5C0C5C0C5C0C5C0C5403D490849005D
:1003F0008D46704710B50446C046C0462046FFF7FC
:10040000AAFE10BD004870470800002001491820CE
:10041000ABBEFEE7260002007047B0B50578002DA0
:100420000CD0044600F0FCFB0128FBD1E8B200F040
:100430002FFC601C6578002D0446F3D1B0BD000090
:100440000249088008880028FCD170479A000020E3
:1004500080B5002806D0012808D10548022100F007
:10046000E3F880BD0248022100F0F5F880BDC046E7
:1004700000040048FEE780B500F010F900F014F920
:1004800000F02AF900F02EF900F014F90128FBD150
:1004900000F01AF980BD80B500F016F980BD0000AB
:1004A00081B013490A6802430A600968014000915B
:1004B000009801B07047C04681B0012040040C494B
:1004C0000A6802430A60096801400091009801B07F
:1004D0007047C04681B00120400405490A680243C4
:1004E0000A60096801400091009801B07047C04659
:1004F0001410024081B0012000070B490A68024332
:100500000A60096801400091009801B07047C04638
:1005100081B005490A6802430A60096801400091F8
:10052000009801B07047C0461C10024081B01248CC
:10053000016801221143016000681040009000989A
:1005400001B0704781B00C490A6802430A6009682B
:1005500001400091009801B07047C04681B0012071
:10056000800305490A6802430A6009680140009156
:10057000009801B07047C046181002400548016855
:10058000012008407047C0460248016801220A4322
:100590000260704700200240F0B581B00D4604466D
:1005A000096800292DD0002709E06A6920463146F4
:1005B00000F046F87F1C29680846F84021D0012643
:1005C000BE400E40F6D06A682046314600F045F83D
:1005D0006868401E012804D8AA682046314600F009
:1005E00054F82A692046314600F046F86868022827
:1005F000E0D1FF2ED9D86A692046314600F016F8BE
:10060000D8E76868401E012803D8EA68204600F051
:100610002DF8002001B0F0BD02480168012008401B
:100620007047C046101400488162704749434943EF
:100630004A430F234B43016A9943114301627047B8
:10064000090A494349434A430F234B43416A9943AB
:100650001143416270478161704749434A43032314
:100660004B43016899431143016070474A43436813
:100670008B4313434360704749434A4303234B432F
:10068000C16899431143C160704749434A430323FA
:100690004B43816899431143816070470C4801497D
:1006A00001607047CCCC00000948014901607047E7
:1006B0005555000003480068072101404842484161
:1006C0007047C0460C300040014802490160704745
:1006D00000300040AAAA00000148052101607047CF
:1006E0000430004001480249016070470830004072
:1006F000FF0F000080B500F001F880BD80B57D21BE
:10070000C90001F01FF8401E0349486000208860BE
:100710000520086080BDC04610E000E05D4801682B
:10072000F02008407047C046072001025948006881
:1007300008407047574801680C2008407047C04681
:10074000544801680C2008407047C04680B5002816
:1007500001D0002080BD00F01FF803280CD0022833
:1007600004D001280ED100F001FD80BD00F034F866
:10077000411E8841C00380BD00F020F8002807D04A
:10078000044880BD00F0F2FC00F0D6FC00F0E2FC72
:1007900080BDC04600127A0042480168032008402C
:1007A0007047C0462F48016801220A430260704723
:1007B0002C4800688007C00F7047C0462948006871
:1007C0008007C00F7047C0462648016880220A4350
:1007D00078218A4302607047024800688007C00F92
:1007E0007047C046201002400548016801220A43B4
:1007F00002607047024800688007C00F7047C0461B
:10080000241002403D20000422490A68824305204A
:10081000C00410180860886A0F22904388627047ED
:10082000012000060F490A6802430A607047C0466B
:100830000120010417480068084070470F20810418
:100840001448006808407047024801680F200840BB
:100850007047C0462C100240024800688001C00F5B
:100860007047C046001002400A480168F0229143D8
:10087000016070470720000206490A6882430A6047
:100880007047C0460348016802220A4301218A4397
:10089000026070470410024002480168032291433D
:1008A0000160704730100240014908607047C0463F
:1008B0000000002002480168012291430160704756
:1008C00020200040026A0A43026270470121C943A6
:1008D0000161704701688022914301607047000008
:1008E000704801680122914301607047016801224C
:1008F000914301607047000097480168802291434E
:1009000001607047016801220A43026070470000DD
:100910000248016801220A43026070470C48014006
:10092000416901220A4342617047000010B5012865
:1009300005D0042805D0102805D1022004E00020AD
:1009400002E0012000E006202E49095C03228A40D3
:100950002D4B185C2D4BC458944301228A402243EE
:10096000C25010BDB0B5012805D0042805D010280C
:1009700005D1022004E0002002E0012000E0062072
:10098000204A125CF02393401F4C205C1F4C0559F9
:100990009D43090C914029430151B0BD012805D068
:1009A000042805D0102805D1022004E0002002E030
:1009B000012000E0062004A1085C0A2181400448CF
:1009C00002688A430260704700020406080A0C00AD
:1009D00020040040012805D0042805D0102805D1A6
:1009E000022004E0002002E0012000E0062005498A
:1009F000095C0C228A400449085C0449435893432B
:100A00004350704759190008521900081804004053
:100A100070B50D46044601681F4EB04202D01F4813
:100A2000844204D1702081436868084300E008468E
:100A30001B498C4208DDB4420CD01A498C4209D0C3
:100A400019498C4206D024E014498C4202D0DA497C
:100A50008C421ED1032109028843E96801432160C9
:100A6000A968204600F06CF82988204600F076F846
:100A7000B44205D00B48844202D00B48844203D1D3
:100A8000297C204600F06CF82046FFF749FF002043
:100A900070BD0146E3E7C046002C01400004004061
:100AA000FF2B014000480140004401400169012042
:100AB000084070470548016804229143016070476F
:100AC0000248016808220A4302607047182000406B
:100AD000B0B503460120FF2909DC012914D01029F3
:100AE0001DD11846114600F057FA0020B0BD012470
:100AF0002502A9420ED02403A14210D11846114666
:100B000000F0DCFA0020B0BD1846114600F006FAED
:100B10000020B0BD1846114600F086FA0020B0BD96
:100B2000014908607047C046342000404163704767
:100B300081637047C163704701647047C162704749
:100B4000C1627047416270470348016801220A434D
:100B500006218A43026070470804004081627047A2
:100B60000163704702480168702291430160704739
:100B7000040400400120C00204490A6882430A605C
:100B800048680822904348607047C04604380140D6
:100B90000120800202490A6882430A607047C04609
:100BA00008380140DB48016801220A4302607047AF
:100BB00070B50E46054600F03BF80124002801D030
:100BC000204670BD28681549014070680843F168E7
:100BD000014330690843B16901432960B16828467F
:100BE00000F04FF87169284600F044F8C948854282
:100BF00003D00021002906D1E2E70020FFF7A6FD7F
:100C000001460029DCD03368002BD9D0B2692846D0
:100C100000F012F80024204670BDC046F369FFFFC3
:100C2000024800684006C00F7047C0461C380140AB
:100C3000016801200840704710B504460120C00338
:100C400082420CD1480059080818194600F07AFD74
:100C5000074901400007400F4018E06010BD5808E8
:100C60004018194600F06EFD80B2E06010BDC0462D
:100C7000F0FF000003221202836893430B4383605A
:100C8000704703221203436893430B43436070474A
:100C9000014908807047C04628380140F0B589B046
:100CA0000025089507950695059504950395012758
:100CB000B805FFF7F5FB7804FFF7F2FBB804FFF780
:100CC000EFFB0920C006029020210191FFF7ACFC48
:100CD000104802263146FFF7A7FC079504950397B5
:100CE0000D4803AC2146FFF757FC0796069505957E
:100CF00004970198039002982146FFF74DFC079650
:100D0000069505950497039602482146FFF744FC93
:100D100009B0F0BD0004004800140048F0B593B0DD
:100D200000271297119710970F970E970D970C9712
:100D30000B970A97099708970797069705970497BF
:100D40000397029701970097012425022846FFF791
:100D5000DFFB0EA92F2008801197164810900F97DF
:100D6000154E3046FFF754FE3046FFF7B3FDFFF750
:100D7000A7FE0A97F3350995089707976020069014
:100D800006AA30462146FFF7A3FEFFF793FEFFF7C2
:100D900093FB042005900220049003970297019092
:100DA000102000900920C0066946FFF7F5FB13B03C
:100DB000F0BDC046E703000000200040F0B58DB054
:100DC00000260C960B960A960996089607960696A4
:100DD000059604960396029602252846FFF798FB8F
:100DE000FFF76AFB01240794069505960496039580
:100DF000402002900920C006019002AF3946FFF75B
:100E0000CBFB0794069505960496039580200290E7
:100E100001983946FFF7C0FBFFF796FE2046FFF723
:100E200085FD2046FFF7D6FD21052046FFF79AFDF8
:100E30002046FFF7B3FD10252846FFF777FD28462B
:100E4000FFF7C8FD61052846FFF78CFD2846FFF730
:100E5000A5FD08A90E800B9607480A900996074C35
:100E60002046FFF7D5FD2046FFF734FDFFF77AFE59
:100E7000FFF742FD0DB0F0BDFFFF00000004004091
:100E8000F0B58FB000260E960D960C960B960A962E
:100E90000996089607960696059604960396029676
:100EA000FFF75CFBFFF716FB012001900790069609
:100EB00005960320009004900227039704200290D7
:100EC0000920C40602AD20462946FFF765FB0198BC
:100ED00007900696059600980490039708200290C4
:100EE00020462946FFF758FB0E960D960C200C90D5
:100EF0000B960A960996E12000020890054808A979
:100F0000FFF756FEFFF744FEFFF734FEFFF74AFEF9
:100F10000FB0F0BD00380140FEE70000F0B583B02F
:100F200004460126F043226A024022620A69024016
:100F3000236A0327BB431343086802904D681D438F
:100F40006368A2697948844205D0D948844202D0B6
:100F50007748844213D13802834370024E69019668
:100F60008F69CE6987431F4373003B430C20854341
:100F700001984008C00028438D68AD0005436360B8
:100F80007320824302980243A261C9682046FFF79A
:100F9000CDFD256203B0F0BDF0B583B00446006A14
:100FA000102290432062206A302290430A6952083E
:100FB000520102430F684B681D0115436368A26923
:100FC0005A4EB44205D0BA4EB44202D0584EB44242
:100FD00019D10326B602B343486902903E468F6991
:100FE000C8690190BF000F48384037461843019B3D
:100FF000DB000343C020854302984008C00128431A
:101000008D68AD010543636073200002824338029E
:101010001043A061C9682046FFF78AFD256203B02E
:10102000F0BDC046FCF7FFFFF0B585B0044621488F
:10103000FF30226A02402262032003900002226AEB
:1010400082430869400843021343086804904A68D1
:1010500015021D436368E269344FBC4205D0944FCA
:10106000BC4202D0324FBC4217D103980703BB43A6
:101070004E6902968E69CF69019737010E4E3E4048
:101080001E43019B5B013343800285430298400865
:10109000C00228438D68AD0205436360732082431C
:1010A00004980243E261C9682046FFF743FD2562C8
:1010B00005B0F0BD00FEFFFFF0DFFFFFF0B583B02D
:1010C000044601263003226A82432262256A63684D
:1010D00005C902928A680192E269144F0839BC423C
:1010E00005D0734FBC4202D0114FBC4205D1B603AC
:1010F000B3438E69B6011E4300E01E46666073234B
:101100001B029A4300021043E061C9682046FFF7C2
:1011100013FD032000038543019840084003284342
:10112000029909030143216203B0F0BD002C014084
:10113000004401407047000010B50446FFF7EEFA86
:101140000006000F0249085CC440204610BDC0469E
:101150003A19000810B50446FFF7E6FA000A0249FA
:10116000085CC440204610BD4A19000880B5FFF74E
:10117000E7FA082802D100F003F880BD104880BDCE
:10118000B0B501200504FFF753FB0E4CA84203D075
:101190002146002804D002E00949002800D00C466E
:1011A000FFF752FB411C204600F0CCFA0446FFF743
:1011B00045FB8002000F801C44432046B0BDC04662
:1011C00000127A0000093D0080B5FFF725FAC0B291
:1011D00080BD704780B5002807D001280AD10920BA
:1011E000C0062021FFF737FA80BD0920C006202164
:1011F000FFF71AFA80BD80B500F05CF880BD0000F2
:10120000FF20000606494A680240064BD2184A6091
:101210008A6802408A600868072202430A607047B1
:1012200010E000E07FBB000010B5FFF7ADF9FFF75D
:10123000A5F90128FBD1FFF7B5FAFFF7B9FA0128A4
:10124000FBD1FFF7C1FAFFF7CFFAFFF7D3FA012876
:10125000FBD1FFF7D7FAFFF7E3FAFFF7FDFA012812
:10126000FBD1FFF701FBFFF705FBFFF70BFBFFF7D8
:1012700061FA0828FBD1054C2046FFF73BFA2046CF
:10128000FFF712FBFFF708FB10BDC046006CDC0245
:101290007047000010B5C14C2046FFF707FC01283D
:1012A00004D12046FFF712FB00F00EF810BDC04637
:1012B0000048014003480188002902D00188491EE6
:1012C000018070479A00002010B5074C0120207063
:1012D000FFF706FB2278054C05A12046FEF75EFFCE
:1012E0002046FFF79AF810BD040000206800002097
:1012F000656E645F626F756E63653D25750D0A00EE
:1013000001208005014908607047C04600E100E007
:10131000FF20000603490A68824303208007101853
:101320000860704720ED00E0FF20000403490A68D0
:1013300082430120C00510180860704714E400E0E3
:1013400010B504461920C101208948433C2100F012
:10135000F9F901466060024800F0F4F9208010BD00
:1013600040420F00B0B50446174D00212846FFF754
:10137000E9FB6008FFF7D4FB28462146FFF7DEFBB8
:10138000B0BDC046B0B505460F4C2046FFF7AEFADB
:101390006808FFF7C5FB20462946FFF7CFFB002171
:1013A0002046FFF7CFFB01212046FFF78BFA2046AE
:1013B000FFF7A8FAB0BDC04680B50348FFF796FA1C
:1013C000FFF778FA80BDC0460020004080B5782144
:1013D0000181FFF7B5FF67480178FE220A400270DD
:1013E00080BDC04610B5084C08492046FFF7AAFB4F
:1013F00001212046FFF766FA10212046FFF762FA26
:101400002046FFF77FFA10BD00040040FF7F000078
:1014100080B5FFF7D9FE8D4908700878012801D101
:10142000022004E00878002800D080BD0020854913
:10143000087080BDFFF77AF8FFF75CF8FFF768FFE8
:10144000FFF7F2FEFFF72AFCFFF7B8FCFFF766FC98
:10145000FFF716FDFFF70FF800F046F9FFF7D0FE93
:10146000FFF7D6FF0E4C2046FFF7B0FF3B480021A8
:10147000C1710A2181710D214171742101717222A2
:10148000C27061228270417073210170FEF7C5FF46
:10149000044D2846214600F007F8FEF7FCFFF8E768
:1014A000B0000020A000002070B50C4600F078F8D5
:1014B00000280CD028490A78101808700A78274D9F
:1014C00027A12846FEF76AFE2846FEF7A6FF224817
:1014D000017803293DD8C0467944097949008F44F1
:1014E000010C1C3A23480178FE220A400270FFF7E3
:1014F00063FF0020FEF7ACFF70BD1E4E3078C007C2
:1015000029D101252846FEF7A3FF307802210143A7
:1015100031702846FFF75EFE14E0164E30788007E3
:1015200019D500252846FEF793FF00F007F930781B
:10153000FD21014031702846FFF74CFE0125284669
:10154000FEF786FF204600F0D7F830782843307049
:1015500070BD0021017070BD9C000020680000205B
:1015600064726976655F7374617475733D25750D7A
:101570000A000000BC00002010B54100594C204674
:10158000FFF7DCFA00212046FFF7DCFA2046FFF7E0
:101590009DF92046FFF7B6F910BDC046004801404E
:1015A000B0B5284D287800280ED027480078297833
:1015B000012925D1012823D1FFF706FE234C2070F5
:1015C000012809D101200DE0FFF7FEFD1F49087039
:1015D000002401281ED11FE0FFF7F6FD207000282F
:1015E00004D1FF201A490A781018087018480178A9
:1015F000132918D80178002915D00520FFF7BCFF62
:1016000028780024022805D1FFF7DEFD0F49087075
:10161000002801D02046B0BD012028700A20FFF725
:10162000ABFF2046B0BD0178142901D1022103E0AF
:101630000178002901D1002129700A2101700124BB
:101640002046B0BDAC00002004000020BD000020FA
:101650000500002010B586B000240594049403947E
:101660000294019401204004FEF76CFF01A92F2091
:1016700008800494FF2003900294044C2046FFF756
:10168000C7F92046FFF726F906B010BD0044014017
:1016900010B586B000240594049403940294019438
:1016A00001208004FEF74EFF01A90C740B4808804E
:1016B00004940B48039002940A4C2046FFF7A8F9C3
:1016C0002046FFF707F92046FFF700F9FFF720F95A
:1016D000FFF72AFEFFF714FE06B010BDBF5D000045
:1016E000FFFF00000048014080B5FFF77BFEFFF7D9
:1016F000B1FFFFF7CDFF80BD10B582B004460E48A4
:1017000001900198FFF73EFE0220FEF799FE208827
:10171000019981420CD901980A3801900198FFF78C
:1017200021FE0220FEF78CFE208801998142F2D82A
:10173000FFF718FE02B010BD6A18000080B5FFF771
:101740003BFE80BD43088B421AD3002203098B4223
:1017500079D3030A8B425ED3030B8B4242D3030C33
:101760008B4227D30902FF2212BA030C8B4202D309
:101770001212090203D0030B8B4233D31AE0D3E0D9
:10178000411A8041401C704703460B4371D4430803
:101790008B42F5D3002203098B4254D3030A8B42B8
:1017A00039D3030B8B421DD3030C8B4202D39446D7
:1017B0006EE0090AC30B8B4201D3CB03C01A52411E
:1017C000830B8B4201D38B03C01A5241430B8B42D4
:1017D00001D34B03C01A5241030B8B4201D30B03BD
:1017E000C01A5241C30A8B4201D3CB02C01A5241E4
:1017F000830A8B4201D38B02C01A5241430A8B42A7
:1018000001D34B02C01A5241030A8B4201D30B028F
:10181000C01A5241CDD2C3098B4201D3CB01C01AA9
:10182000524183098B4201D38B01C01A52414309B3
:101830008B4201D34B01C01A524103098B4201D3A1
:101840000B01C01A5241C3088B4201D3CB00C01A0E
:10185000524183088B4201D38B00C01A5241430886
:101860008B4201D34B00C01A5241411A5241100021
:101870007047CA0F00D04942031000D34042534082
:1018800000229C4603098B422DD3030A8B4212D3BC
:101890008901FC2212BA030A8B420CD389019211EE
:1018A0008B4208D3890192118B4204D3890137D02E
:1018B000921100E08909C3098B4201D3CB01C01A00
:1018C000524183098B4201D38B01C01A5241430913
:1018D0008B4201D34B01C01A524103098B4201D301
:1018E0000B01C01A5241C3088B4201D3CB00C01A6E
:1018F000524183088B4201D38B00C01A5241D9D286
:1019000043088B4201D34B00C01A5241411A00D206
:1019100001465241104663465B1000D34042704777
:1019200063465B1000D3404201B50021004201D064
:10193000C9430846C046C04602BD00000000000082
:10194000000001020304060708090000000001026C
:101950000304000000000404040000080000000864
:10196000801900080000002008000000F4000008B2
:101970008819000808000020B805000010010008C0
:0819800000127A00010A0000C8
:04000005080000B13E
:00000001FF
