:020000040800F2
:10000000C0050020650100080910000889040008E7
:1000100000000000000000000000000000000000E0
:10002000000000000000000000000000B9120008FD
:100030000000000000000000251200082513000841
:100040007701000800000000770100087701000830
:1000500077010008510400087701000877010008C3
:100060000000000077010008770100087701000810
:100070007701000877010008770100080000000000
:100080007701000800000000000000007701000870
:100090000000000077010008C11300087701000884
:1000A0000000000077010008000000007701000850
:1000B00000F002F800F046F80CA030C80838241808
:1000C0002D18671EA246AB4654465D46AC4201D190
:1000D00000F038F87E460F3EB6460FCC012633427C
:1000E00000D0FB1A3343A246AB4618472419000040
:1000F00044190000103A02D378C878C1FAD85207E0
:1001000001D330C830C101D504680C6070470000CD
:100110000023002400250026103A01D378C1FBD823
:10012000520700D330C100D50B60704710B5752958
:1001300002D100F07DF810BD002010BD1FB51FBD1D
:1001400010B510BD00F037F91146FFF7F7FF01F0C9
:10015000F3F900F04FF903B4FFF7F2FF03BC00F02E
:1001600055F900000748804707480047FEE7FEE7CB
:10017000FEE7FEE7FEE7FEE704480549054A064BB1
:1001800070470000BD130008B1000008C000002047
:10019000C0050020C0010020C00100200FB41CB524
:1001A000074B06AA7B4469460090059800F0D7F8F3
:1001B0000020694600F0E6F81CBC08BC04B01847F3
:1001C000DD010000F8B50E460446002020622046FE
:1001D000E1688847002829D0252802D06268A168F4
:1001E00020E0E16820460027884705001ED0284609
:1001F0004138192802D80127FF022035324620460F
:1002000027602946FFF792FF002808D0012804D074
:10021000F61DF608F6000836D9E7361DD7E76268FE
:100220002846A1689047206A401CCFE7206AF8BDA5
:10023000F7B5002575291068009914A611D0C0469D
:10024000C046002802DA404211A608E00099096879
:100250008A0701D50FA602E0490704D50EA601259D
:1002600001E0C046C046009F0024243704E000F0AF
:100270008EF830313955641C0028F8D12B463246AF
:100280002146009800F00DF8FEBD000000000000BF
:100290002D0000002B000000200000007047704778
:1002A0007047FFB504460D4681B0243000902168A8
:1002B000880604D51022E0699143216000E0012006
:1002C000A84201DD471B00E000270498A1697A19C4
:1002D0001018081AA0612078C00602D42046C04633
:1002E000C046002608E003986268A168805D9047D8
:1002F000206A401C761C206204988642F3DB20783A
:10030000C0060AD52046C046C04606E06268A1681D
:1003100030209047206A401C206238467F1E00280B
:10032000F4DC07E000986268A168405D9047206AAD
:10033000401C206228466D1E0028F3DC2046C04683
:10034000C0462078000602D5022005B0F0BD01208D
:10035000FBE7000001694A1C02610878704700B59C
:100360008FB00291002105910549019379440391D1
:10037000114604906846FFF725FF0FB000BD00004E
:10038000E5FFFFFF0A681070521C0A6070470146C3
:100390008008081A02091018020A1018020C101816
:1003A000C008820012185200891A01E0401C0A3964
:1003B0000A29FBD27047754600F024F8AE460500C6
:1003C00069465346C008C000854618B020B5FFF7FF
:1003D000D3FE60BCB64600260027C0C5C0C5C0C558
:1003E000C0C5C0C5C0C5C0C5C0C5403D490849005D
:1003F0008D46704710B50446C046C0462046FFF7FC
:10040000AAFE10BD004870470800002001491820CE
:10041000ABBEFEE7260002007047B0B50578002DA0
:100420000CD0044600F06AFC0128FBD1E8B200F0D1
:100430009DFC601C6578002D0446F3D1B0BD000022
:100440000249088008880028FCD170479A000020E3
:1004500080B500F011F9002803D000F085F800F015
:100460003DFF80BD80B5002806D0012808D1054891
:10047000022100F057F980BD0248022100F069F91D
:1004800080BDC04600040048FEE7000081B013496B
:100490000A6802430A60096801400091009801B0AF
:1004A0007047C04681B0012040040C490A680243ED
:1004B0000A60096801400091009801B07047C04689
:1004C00081B00120400405490A6802430A600968B6
:1004D00001400091009801B07047C04614100240DE
:1004E00081B0012000070B490A6802430A600968CD
:1004F00001400091009801B07047C04681B00549A5
:100500000A6802430A60096801400091009801B03E
:100510007047C0461C10024081B012480168012299
:1005200011430160006810400090009801B07047CE
:1005300081B00C490A6802430A60096801400091D1
:10054000009801B07047C04681B001208003054982
:100550000A6802430A60096801400091009801B0EE
:100560007047C0461810024046480121016070479C
:100570000E490A6882430A607047C0460F490A68FC
:1005800082430A607047C04610490A6882430A6085
:100590007047C04611490A6882430A607047C046E6
:1005A00002490A6802430A607047C04604040140D9
:1005B00002490A6802430A607047C0460C040140C1
:1005C00002490A6802430A607047C04600040140BD
:1005D00002490A6802430A607047C04608040140A5
:1005E000B0B504460068217900290ED0002814D047
:1005F0006179022914D0012915D000291AD1FFF7F9
:10060000B7FF2068FFF7DCFF12E0FFF7BDFF2068AF
:10061000FFF7AEFF00252846B0BD00252846B0BD37
:10062000FFF7CEFF01E0FFF7AFFF2068FFF7B8FF4D
:10063000002500E00125A07903280ED87844007930
:100640004000874401020D11E5E72068FFF796FF9F
:100650002068FFF7BDFF2846B0BD01252846B0BD84
:100660002068FFF797FF02E02068FFF7B1FF2068DE
:10067000FFF79EFF2846B0BD0248016801200840F0
:100680007047C04614040140054801680120084035
:100690007047C0460248016801220A430260704761
:1006A00000200240F0B581B00D46044609680029DB
:1006B0002DD0002709E06A692046314600F03EF857
:1006C0007F1C29680846F84021D00126BE400E4014
:1006D000F6D06A682046314600F046F86868401E49
:1006E000012804D8AA682046314600F060F82A693B
:1006F0002046314600F052F868680228E0D1FF2E0B
:10070000D9D86A692046314600F00EF8D8E7686803
:10071000401E012803D8EA68204600F02EF8002089
:1007200001B0F0BD81627047494349434A430F23FA
:100730004B43016A9943114301627047090A4943D7
:1007400049434A430F234B43416A99431143416252
:10075000704781617047000002480168032291439D
:10076000016070470014004849434A4303234B4348
:10077000016899431143016070474A4343688B43C2
:1007800013434360704700000348016802220A4394
:1007900001218A43026070470C14004849434A43D0
:1007A00003234B43C16899431143C16070474943D8
:1007B0004A4303234B438168994311438160704747
:1007C00080B500F001F880BD80B57D21C90001F041
:1007D00011F8401E03494860002088600520086029
:1007E00080BDC04610E000E05D480168F020084090
:1007F0007047C0460720010259480068084070470A
:10080000574801680C2008407047C04654480168AA
:100810000C2008407047C04680B5002801D0002059
:1008200080BD00F01FF803280CD0022804D0012856
:100830000ED100F013FD80BD00F034F8411E884158
:10084000C00380BD00F020F8002807D0044880BD18
:1008500000F004FD00F0E8FC00F0F4FC80BDC046B0
:1008600000127A0042480168032008407047C046E1
:100870002F48016801220A43026070472C48006833
:100880008007C00F7047C046294800688007C00F26
:100890007047C0462648016880220A4378218A436F
:1008A00002607047024800688007C00F7047C0466A
:1008B000201002400548016801220A430260704787
:1008C000024800688007C00F7047C04624100240ED
:1008D0003D20000422490A6882430520C004101804
:1008E0000860886A0F2290438862704701200006E2
:1008F0000F490A6802430A607047C046012001049C
:1009000017480068084070470F20810414480068A9
:1009100008407047024801680F2008407047C046F1
:100920002C100240024800688001C00F7047C0468A
:10093000001002400A480168F022914301607047AC
:100940000720000206490A6882430A607047C046D1
:100950000348016802220A4301218A43026070476A
:10096000041002400248016803229143016070476D
:10097000301002400348016805220A430A218A43D5
:100980000260704708000140014908607047C04696
:100990000000002002480168012291430160704775
:1009A00020200040026A0A43026270470121C943C5
:1009B00001617047016880229143016070470168BE
:1009C00001229143016070479A4801688022914357
:1009D00001607047016801220A430260704700000D
:1009E0000248016801220A43026070470C48014036
:1009F000416901220A4342617047000001480068D2
:100A00007047C0462404004010B5012805D00428D2
:100A100005D0102805D1022004E0002002E00120CA
:100A200000E006202E49095C03228A402D4B185C09
:100A30002D4BC458944301228A402243C25010BD1A
:100A4000B0B5012805D0042805D0102805D1022012
:100A500004E0002002E0012000E00620204A125CB1
:100A6000F02393401F4C205C1F4C05599D43090CFB
:100A7000914029430151B0BD012805D0042805D07B
:100A8000102805D1022004E0002002E0012000E04F
:100A9000062004A1085C0A218140044802688A43B8
:100AA0000260704700020406080A0C00200400409F
:100AB000012805D0042805D0102805D1022004E023
:100AC000002002E0012000E006200549095C0C221C
:100AD0008A400449085C0449435893434350704793
:100AE000091A0008021A00081804004070B50D46E3
:100AF000044601681F4EB04202D01F48844204D110
:100B0000702081436868084300E008461B498C4216
:100B100008DDB4420CD01A498C4209D019498C42E4
:100B200006D024E014498C4202D0DF498C421ED109
:100B3000032109028843E96801432160A96820462E
:100B400000F06CF82988204600F076F8B44205D011
:100B50000B48844202D00B48844203D1297C2046B2
:100B600000F06CF82046FFF743FF002070BD0146FF
:100B7000E3E7C046002C014000040040FF2B014089
:100B800000480140004401400169012008407047CD
:100B900005480168042291430160704702480168DA
:100BA00008220A430260704718200040B0B503468F
:100BB0000120FF2909DC012914D010291DD1184674
:100BC000114600F061FA0020B0BD01242502A942BF
:100BD0000ED02403A14210D11846114600F0E6FAC7
:100BE0000020B0BD1846114600F010FA0020B0BD3C
:100BF0001846114600F090FA0020B0BD0149086087
:100C00007047C0463420004041637047816370479D
:100C1000C163704701647047C1627047C162704729
:100C2000416270470348016801220A4306218A4352
:100C3000026070470804004081627047016370479A
:100C4000024801687022914301607047040400402B
:100C50000120C00204490A6882430A6048680822E9
:100C6000904348607047C04604380140012080022C
:100C700002490A6882430A607047C046083801404A
:100C8000E048016801220A430260704770B50E46D1
:100C9000054600F03BF80124002801D0204670BD35
:100CA00028681549014070680843F16801433069BC
:100CB0000843B16901432960B168284600F04FF844
:100CC0007169284600F044F8CE48854203D00021DF
:100CD000002906D1E2E70020FFF79EFD014600292A
:100CE000DCD03368002BD9D0B269284600F012F866
:100CF0000024204670BDC046F369FFFF024800682B
:100D00004006C00F7047C0461C38014001680120F2
:100D10000840704710B504460120C00382420CD140
:100D2000480059080818194600F064FD07490140B9
:100D30000007400F4018E06010BD580840181946E1
:100D400000F058FD80B2E06010BDC046F0FF00002A
:100D500003221202836893430B438360704703228C
:100D60001203436893430B43436070470149088073
:100D70007047C04628380140F0B58BB00024099474
:100D8000089407940694059404940394029401250E
:100D9000A805FFF77BFB6804FFF778FBA804FFF7C3
:100DA00075FB0920C006019020273946FFF7BAFCE1
:100DB000154802263146FFF7B5FCFFF7DBFDFFF7CC
:100DC000E3FCFFF7C9FC08A8032181718580089521
:100DD000FFF706FC0696059404940395029702AF6C
:100DE00001983946FFF75EFC069605940494039536
:100DF000029605483946FFF755FC00F01FFB00F04E
:100E000003FB0BB0F0BDC04600040048F0B593B042
:100E100000271297119710970F970E970D970C9721
:100E20000B970A97099708970797069705970497CE
:100E30000397029701970097012425022846FFF7A0
:100E40005DFB0EA92F2008801197164810900F9770
:100E5000154E3046FFF74AFE3046FFF7ABFDFFF771
:100E60009DFE0A97F335099508970797602006902D
:100E700006AA30462146FFF799FEFFF789FEFFF7E5
:100E800011FB042005900220049003970297019023
:100E9000102000900920C0066946FFF703FC13B03C
:100EA000F0BDC046E703000000200040F0B58DB063
:100EB00000260C960B960A960996089607960696B3
:100EC000059604960396029602252846FFF716FB20
:100ED000FFF7E8FA01240794069505960496039512
:100EE000402002900920C006019002AF3946FFF76A
:100EF000D9FB0794069505960496039580200290E9
:100F000001983946FFF7CEFBFFF78CFE2046FFF72E
:100F10007BFD2046FFF7CCFD21052046FFF790FD25
:100F20002046FFF7A9FD10252846FFF76DFD28464E
:100F3000FFF7BEFD61052846FFF782FD2846FFF753
:100F40009BFD08A90E800B9607480A900996074C4E
:100F50002046FFF7CBFD2046FFF72CFDFFF770FE84
:100F6000FFF732FD0DB0F0BDFFFF000000040040B0
:100F7000F0B58FB000260E960D960C960B960A963D
:100F80000996089607960696059604960396029685
:100F9000FFF7DAFAFFF794FA01200190079006961E
:100FA00005960320009004900227039704200290E6
:100FB0000920C40602AD20462946FFF773FB0198BD
:100FC00007900696059600980490039708200290D3
:100FD00020462946FFF766FB0E960D960C200C90D6
:100FE0000B960A960996E12000020890054808A988
:100FF000FFF74CFEFFF73AFEFFF72AFEFFF740FE31
:101000000FB0F0BD00380140FEE70000F0B583B03E
:1010100004460126F043226A024022620A69024025
:10102000236A0327BB431343086802904D681D439E
:101030006368A2697948844205D0E848844202D0B6
:101040007748844213D13802834370024E69019677
:101050008F69CE6987431F4373003B430C20854350
:1010600001984008C00028438D68AD0005436360C7
:101070007320824302980243A261C9682046FFF7A9
:10108000C3FD256203B0F0BDF0B583B00446006A2D
:10109000102290432062206A302290430A6952084D
:1010A000520102430F684B681D0115436368A26932
:1010B0005A4EB44205D0C94EB44202D0584EB44242
:1010C00019D10326B602B343486902903E468F69A0
:1010D000C8690190BF000F48384037461843019B4C
:1010E000DB000343C020854302984008C001284329
:1010F0008D68AD01054363607320000282433802AE
:101100001043A061C9682046FFF780FD256203B047
:10111000F0BDC046FCF7FFFFF0B585B0044621489E
:10112000FF30226A02402262032003900002226AFA
:1011300082430869400843021343086804904A68E0
:1011400015021D436368E269344FBC4205D0A34FCA
:10115000BC4202D0324FBC4217D103980703BB43B5
:101160004E6902968E69CF69019737010E4E3E4057
:101170001E43019B5B013343800285430298400874
:10118000C00228438D68AD0205436360732082432B
:1011900004980243E261C9682046FFF739FD2562E1
:1011A00005B0F0BD00FEFFFFF0DFFFFFF0B583B03C
:1011B000044601263003226A82432262256A63685C
:1011C00005C902928A680192E269144F0839BC424B
:1011D00005D0824FBC4202D0114FBC4205D1B603AC
:1011E000B3438E69B6011E4300E01E46666073235A
:1011F0001B029A4300021043E061C9682046FFF7D2
:1012000009FD03200003854301984008400328435B
:10121000029909030143216203B0F0BD002C014093
:10122000004401407047000010B50446FFF7DCFAA7
:101230000006000F0249085CC440204610BDC046AD
:10124000EA19000810B50446FFF7D4FA000A02496B
:10125000085CC440204610BDFA19000880B5FFF7AD
:10126000D5FA082802D100F003F880BD104880BDEF
:10127000B0B501200504FFF741FB0E4CA84203D096
:101280002146002804D002E00949002800D00C467D
:10129000FFF740FB411C204600F0ACFA0446FFF784
:1012A00033FB8002000F801C44432046B0BDC04683
:1012B00000127A0000093D00704780B5002807D071
:1012C00001280AD10920C0062021FFF742FA80BD7B
:1012D0000920C0062021FFF725FA80BD10B50C4C6F
:1012E0002078022802D82078401C00E000202070DE
:1012F00000F080F87D20C00000F0DCF92278054C79
:1013000005A12046FEF74AFF2046FFF786F810BDEC
:101310009C000020680000206972712025750D0A6C
:101320000000000080B500F05BF880BDFF200006E3
:1013300006494A680240064BD2184A608A68024051
:101340008A600868072202430A60704710E000E0E4
:101350007FBB000010B5FFF79DF9FFF795F9012855
:10136000FBD1FFF785FAFFF789FA0128FBD1FFF7D8
:1013700091FAFFF79FFAFFF7A3FA0128FBD1FFF7D5
:10138000A7FAFFF7B3FAFFF7CDFA0128FBD1FFF771
:10139000D1FAFFF7D5FAFFF7DBFAFFF731FA0828A1
:1013A000FBD1054C2046FFF70BFA2046FFF7ECFA7D
:1013B000FFF7D8FA10BDC046006CDC027047000091
:1013C00010B5F14C2046FFF7DFFB012805D1204680
:1013D000FFF7ECFA052000F01BF810BD00480140B3
:1013E00003480188002902D00188491E0180704706
:1013F0009A000020034820210160BFF34F8FBFF304
:101400006F8F704780E100E0054820210160704740
:101410001F21014001208840014908607047C046F3
:1014200000E100E0FF20000603490A688243032030
:10143000800710180860704720ED00E0FF200002D0
:1014400002490A6882430A607047C04604E400E02B
:10145000FF20000403490A6882430120C0051018D8
:101460000860704714E400E010B504461920C1017B
:10147000208948433C2100F0BDF9014660600248E4
:1014800000F0B8F9208010BD40420F00B0B504460E
:10149000174D00212846FFF7C3FB6008FFF7AEFB9E
:1014A00028462146FFF7B8FBB0BDC046B0B505469B
:1014B0000F4C2046FFF783FA6808FFF79FFB204692
:1014C0002946FFF7A9FB00212046FFF7A9FB0121D0
:1014D0002046FFF767FA2046FFF77CFAB0BDC0460A
:1014E00080B50348FFF76BFAFFF754FA80BDC0469A
:1014F0000020004080B506210181FFF7B5FF0120E3
:10150000FEF7B0FF4D480178FE220A40027080BD10
:1015100010B5084C63492046FFF782FB01212046A5
:10152000FFF740FA10212046FFF73CFA2046FFF76C
:1015300051FA10BD00040040FEF7EEFFFEF7D0FFA9
:10154000FFF770FFFFF706FFFFF716FCFFF7AEFC93
:10155000FFF75CFCFFF70CFD00F018F9FFF7E6FE63
:101560000D4C2046FFF7C6FF4F480021C1710A21EC
:1015700081710D214171742101717222C270612249
:101580008270417073210170FEF747FF034D2846BA
:10159000214600F005F8FAE7AC000020A00000208A
:1015A00070B50C4600F098F80546234800780328EB
:1015B00028D8C04678440079400087440124091E99
:1015C0001E480178FE220A400270FFF789FF70BDB5
:1015D0001A4E3078800728D500F008F93078FD21C0
:1015E000014031700020FFF768FE204600F0DCF873
:1015F000307801210143317017E0012D02D12046DE
:1016000000F0CCF870BD0D4E3078C1070DD102212D
:101610000843307001252846FFF74FFE204600F0B2
:10162000C3F830782843307070BD012DEAD12046D0
:1016300000F0B4F870BDC0469C000020B800002047
:10164000B0B50C460546FFF7D9F9401E80B21549E2
:10165000081AC10F4018411069602A6800208A42A8
:101660001ED029608D1A1BD028460930122807D8B1
:1016700020894019208180B2062803D2062004E088
:101680002846B0BDC92801D3C82020812289064C34
:1016900006A12046FEF782FD2046FEF7BEFE284644
:1016A000B0BDC046FF7F0000680000205425750DC6
:1016B0000A00000010B54100334C2046FFF7ACFA99
:1016C00000212046FFF7ACFA2046FFF76FF92046CD
:1016D000FFF780F910BDC04610B50C46FFF7B0FF0C
:1016E000002804D02046FFF7BFFE012010BD0020D7
:1016F00010BD000010B586B0002405940494039436
:101700000294019401204004FEF712FF01A92F204A
:1017100008800494FF2003900294044C2046FFF7B5
:10172000E5F92046FFF746F906B010BD0044014038
:1017300010B586B000240594049403940294019497
:1017400001208004FEF7F4FE01A90C740C48088007
:1017500004940C48039002940B4C2046FFF7C6F902
:101760002046FFF727F92046FFF720F9FFF738F961
:10177000FFF76EFE1620FFF74BFE06B010BDC04609
:10178000BF5D0000FFFF00000048014080B5FFF78B
:10179000BFFEFFF7AFFFFFF7CBFF80BD80B500882E
:1017A000FFF774FE80BD000010B582B004460E48FD
:1017B00001900198FFF77AFE0220FEF741FE208893
:1017C000019981420CD901980A3801900198FFF7DC
:1017D0005DFE0220FEF734FE208801998142F2D896
:1017E000FFF754FE02B010BD6A18000080B5FFF785
:1017F00077FE80BD43088B421AD3002203098B4237
:1018000079D3030A8B425ED3030B8B4242D3030C82
:101810008B4227D30902FF2212BA030C8B4202D358
:101820001212090203D0030B8B4233D31AE0D3E028
:10183000411A8041401C704703460B4371D4430852
:101840008B42F5D3002203098B4254D3030A8B4207
:1018500039D3030B8B421DD3030C8B4202D3944626
:101860006EE0090AC30B8B4201D3CB03C01A52416D
:10187000830B8B4201D38B03C01A5241430B8B4223
:1018800001D34B03C01A5241030B8B4201D30B030C
:10189000C01A5241C30A8B4201D3CB02C01A524133
:1018A000830A8B4201D38B02C01A5241430A8B42F6
:1018B00001D34B02C01A5241030A8B4201D30B02DF
:1018C000C01A5241CDD2C3098B4201D3CB01C01AF9
:1018D000524183098B4201D38B01C01A5241430903
:1018E0008B4201D34B01C01A524103098B4201D3F1
:1018F0000B01C01A5241C3088B4201D3CB00C01A5E
:10190000524183088B4201D38B00C01A52414308D5
:101910008B4201D34B00C01A5241411A5241100070
:101920007047CA0F00D04942031000D340425340D1
:1019300000229C4603098B422DD3030A8B4212D30B
:101940008901FC2212BA030A8B420CD3890192113D
:101950008B4208D3890192118B4204D3890137D07D
:10196000921100E08909C3098B4201D3CB01C01A4F
:10197000524183098B4201D38B01C01A5241430962
:101980008B4201D34B01C01A524103098B4201D350
:101990000B01C01A5241C3088B4201D3CB00C01ABD
:1019A000524183088B4201D38B00C01A5241D9D2D5
:1019B00043088B4201D34B00C01A5241411A00D256
:1019C00001465241104663465B1000D340427047C7
:1019D00063465B1000D3404201B50021004201D0B4
:1019E000C9430846C046C04602BD000000000000D2
:1019F00000000102030406070809000000000102BC
:101A000003040000000004040400000800000008B3
:101A1000301A00080000002008000000F400000850
:101A2000381A000808000020B8050000100100085E
:081A300000127A000000000022
:04000005080000B13E
:00000001FF
